{
  "_format": "hh-sol-artifact-1",
  "contractName": "MyNFT",
  "sourceName": "contracts/MyNFT.sol",
  "abi": [
    {
      "inputs": [
        {
          "internalType": "address",
          "name": "initialOwner",
          "type": "address"
        }
      ],
      "stateMutability": "nonpayable",
      "type": "constructor"
    },
    {
      "inputs": [
        {
          "internalType": "address",
          "name": "sender",
          "type": "address"
        },
        {
          "internalType": "uint256",
          "name": "tokenId",
          "type": "uint256"
        },
        {
          "internalType": "address",
          "name": "owner",
          "type": "address"
        }
      ],
      "name": "ERC721IncorrectOwner",
      "type": "error"
    },
    {
      "inputs": [
        {
          "internalType": "address",
          "name": "operator",
          "type": "address"
        },
        {
          "internalType": "uint256",
          "name": "tokenId",
          "type": "uint256"
        }
      ],
      "name": "ERC721InsufficientApproval",
      "type": "error"
    },
    {
      "inputs": [
        {
          "internalType": "address",
          "name": "approver",
          "type": "address"
        }
      ],
      "name": "ERC721InvalidApprover",
      "type": "error"
    },
    {
      "inputs": [
        {
          "internalType": "address",
          "name": "operator",
          "type": "address"
        }
      ],
      "name": "ERC721InvalidOperator",
      "type": "error"
    },
    {
      "inputs": [
        {
          "internalType": "address",
          "name": "owner",
          "type": "address"
        }
      ],
      "name": "ERC721InvalidOwner",
      "type": "error"
    },
    {
      "inputs": [
        {
          "internalType": "address",
          "name": "receiver",
          "type": "address"
        }
      ],
      "name": "ERC721InvalidReceiver",
      "type": "error"
    },
    {
      "inputs": [
        {
          "internalType": "address",
          "name": "sender",
          "type": "address"
        }
      ],
      "name": "ERC721InvalidSender",
      "type": "error"
    },
    {
      "inputs": [
        {
          "internalType": "uint256",
          "name": "tokenId",
          "type": "uint256"
        }
      ],
      "name": "ERC721NonexistentToken",
      "type": "error"
    },
    {
      "inputs": [
        {
          "internalType": "address",
          "name": "owner",
          "type": "address"
        }
      ],
      "name": "OwnableInvalidOwner",
      "type": "error"
    },
    {
      "inputs": [
        {
          "internalType": "address",
          "name": "account",
          "type": "address"
        }
      ],
      "name": "OwnableUnauthorizedAccount",
      "type": "error"
    },
    {
      "anonymous": false,
      "inputs": [
        {
          "indexed": true,
          "internalType": "address",
          "name": "owner",
          "type": "address"
        },
        {
          "indexed": true,
          "internalType": "address",
          "name": "approved",
          "type": "address"
        },
        {
          "indexed": true,
          "internalType": "uint256",
          "name": "tokenId",
          "type": "uint256"
        }
      ],
      "name": "Approval",
      "type": "event"
    },
    {
      "anonymous": false,
      "inputs": [
        {
          "indexed": true,
          "internalType": "address",
          "name": "owner",
          "type": "address"
        },
        {
          "indexed": true,
          "internalType": "address",
          "name": "operator",
          "type": "address"
        },
        {
          "indexed": false,
          "internalType": "bool",
          "name": "approved",
          "type": "bool"
        }
      ],
      "name": "ApprovalForAll",
      "type": "event"
    },
    {
      "anonymous": false,
      "inputs": [
        {
          "indexed": true,
          "internalType": "address",
          "name": "previousOwner",
          "type": "address"
        },
        {
          "indexed": true,
          "internalType": "address",
          "name": "newOwner",
          "type": "address"
        }
      ],
      "name": "OwnershipTransferred",
      "type": "event"
    },
    {
      "anonymous": false,
      "inputs": [
        {
          "indexed": true,
          "internalType": "address",
          "name": "from",
          "type": "address"
        },
        {
          "indexed": true,
          "internalType": "address",
          "name": "to",
          "type": "address"
        },
        {
          "indexed": true,
          "internalType": "uint256",
          "name": "tokenId",
          "type": "uint256"
        }
      ],
      "name": "Transfer",
      "type": "event"
    },
    {
      "inputs": [
        {
          "internalType": "address",
          "name": "to",
          "type": "address"
        },
        {
          "internalType": "uint256",
          "name": "tokenId",
          "type": "uint256"
        }
      ],
      "name": "approve",
      "outputs": [],
      "stateMutability": "nonpayable",
      "type": "function"
    },
    {
      "inputs": [
        {
          "internalType": "address",
          "name": "owner",
          "type": "address"
        }
      ],
      "name": "balanceOf",
      "outputs": [
        {
          "internalType": "uint256",
          "name": "",
          "type": "uint256"
        }
      ],
      "stateMutability": "view",
      "type": "function"
    },
    {
      "inputs": [
        {
          "internalType": "uint256",
          "name": "tokenId",
          "type": "uint256"
        }
      ],
      "name": "getApproved",
      "outputs": [
        {
          "internalType": "address",
          "name": "",
          "type": "address"
        }
      ],
      "stateMutability": "view",
      "type": "function"
    },
    {
      "inputs": [],
      "name": "getNextTokenId",
      "outputs": [
        {
          "internalType": "uint256",
          "name": "",
          "type": "uint256"
        }
      ],
      "stateMutability": "view",
      "type": "function"
    },
    {
      "inputs": [
        {
          "internalType": "address",
          "name": "owner",
          "type": "address"
        },
        {
          "internalType": "address",
          "name": "operator",
          "type": "address"
        }
      ],
      "name": "isApprovedForAll",
      "outputs": [
        {
          "internalType": "bool",
          "name": "",
          "type": "bool"
        }
      ],
      "stateMutability": "view",
      "type": "function"
    },
    {
      "inputs": [
        {
          "internalType": "address",
          "name": "to",
          "type": "address"
        }
      ],
      "name": "mint",
      "outputs": [],
      "stateMutability": "nonpayable",
      "type": "function"
    },
    {
      "inputs": [],
      "name": "name",
      "outputs": [
        {
          "internalType": "string",
          "name": "",
          "type": "string"
        }
      ],
      "stateMutability": "view",
      "type": "function"
    },
    {
      "inputs": [],
      "name": "nextTokenId",
      "outputs": [
        {
          "internalType": "uint256",
          "name": "",
          "type": "uint256"
        }
      ],
      "stateMutability": "view",
      "type": "function"
    },
    {
      "inputs": [],
      "name": "owner",
      "outputs": [
        {
          "internalType": "address",
          "name": "",
          "type": "address"
        }
      ],
      "stateMutability": "view",
      "type": "function"
    },
    {
      "inputs": [
        {
          "internalType": "uint256",
          "name": "tokenId",
          "type": "uint256"
        }
      ],
      "name": "ownerOf",
      "outputs": [
        {
          "internalType": "address",
          "name": "",
          "type": "address"
        }
      ],
      "stateMutability": "view",
      "type": "function"
    },
    {
      "inputs": [],
      "name": "renounceOwnership",
      "outputs": [],
      "stateMutability": "nonpayable",
      "type": "function"
    },
    {
      "inputs": [
        {
          "internalType": "address",
          "name": "from",
          "type": "address"
        },
        {
          "internalType": "address",
          "name": "to",
          "type": "address"
        },
        {
          "internalType": "uint256",
          "name": "tokenId",
          "type": "uint256"
        }
      ],
      "name": "safeTransferFrom",
      "outputs": [],
      "stateMutability": "nonpayable",
      "type": "function"
    },
    {
      "inputs": [
        {
          "internalType": "address",
          "name": "from",
          "type": "address"
        },
        {
          "internalType": "address",
          "name": "to",
          "type": "address"
        },
        {
          "internalType": "uint256",
          "name": "tokenId",
          "type": "uint256"
        },
        {
          "internalType": "bytes",
          "name": "data",
          "type": "bytes"
        }
      ],
      "name": "safeTransferFrom",
      "outputs": [],
      "stateMutability": "nonpayable",
      "type": "function"
    },
    {
      "inputs": [
        {
          "internalType": "address",
          "name": "operator",
          "type": "address"
        },
        {
          "internalType": "bool",
          "name": "approved",
          "type": "bool"
        }
      ],
      "name": "setApprovalForAll",
      "outputs": [],
      "stateMutability": "nonpayable",
      "type": "function"
    },
    {
      "inputs": [
        {
          "internalType": "bytes4",
          "name": "interfaceId",
          "type": "bytes4"
        }
      ],
      "name": "supportsInterface",
      "outputs": [
        {
          "internalType": "bool",
          "name": "",
          "type": "bool"
        }
      ],
      "stateMutability": "view",
      "type": "function"
    },
    {
      "inputs": [],
      "name": "symbol",
      "outputs": [
        {
          "internalType": "string",
          "name": "",
          "type": "string"
        }
      ],
      "stateMutability": "view",
      "type": "function"
    },
    {
      "inputs": [
        {
          "internalType": "uint256",
          "name": "tokenId",
          "type": "uint256"
        }
      ],
      "name": "tokenURI",
      "outputs": [
        {
          "internalType": "string",
          "name": "",
          "type": "string"
        }
      ],
      "stateMutability": "view",
      "type": "function"
    },
    {
      "inputs": [
        {
          "internalType": "address",
          "name": "from",
          "type": "address"
        },
        {
          "internalType": "address",
          "name": "to",
          "type": "address"
        },
        {
          "internalType": "uint256",
          "name": "tokenId",
          "type": "uint256"
        }
      ],
      "name": "transferFrom",
      "outputs": [],
      "stateMutability": "nonpayable",
      "type": "function"
    },
    {
      "inputs": [
        {
          "internalType": "address",
          "name": "newOwner",
          "type": "address"
        }
      ],
      "name": "transferOwnership",
      "outputs": [],
      "stateMutability": "nonpayable",
      "type": "function"
    }
  ],
  "bytecode": "0x60806040523480156200001157600080fd5b506040516200146838038062001468833981016040819052620000349162000127565b8060405180604001604052806005815260200164135e53919560da1b815250604051806040016040528060048152602001631353919560e21b815250816000908162000081919062000200565b50600162000090828262000200565b5050506001600160a01b038116620000c257604051631e4fbdf760e01b81526000600482015260240160405180910390fd5b620000cd81620000d5565b5050620002cc565b600680546001600160a01b038381166001600160a01b0319831681179093556040519116919082907f8be0079c531659141344cd1fd0a4f28419497f9722a3daafe3b4186f6b6457e090600090a35050565b6000602082840312156200013a57600080fd5b81516001600160a01b03811681146200015257600080fd5b9392505050565b634e487b7160e01b600052604160045260246000fd5b600181811c908216806200018457607f821691505b602082108103620001a557634e487b7160e01b600052602260045260246000fd5b50919050565b601f821115620001fb576000816000526020600020601f850160051c81016020861015620001d65750805b601f850160051c820191505b81811015620001f757828155600101620001e2565b5050505b505050565b81516001600160401b038111156200021c576200021c62000159565b62000234816200022d84546200016f565b84620001ab565b602080601f8311600181146200026c5760008415620002535750858301515b600019600386901b1c1916600185901b178555620001f7565b600085815260208120601f198616915b828110156200029d578886015182559484019460019091019084016200027c565b5085821015620002bc5787850151600019600388901b60f8161c191681555b5050505050600190811b01905550565b61118c80620002dc6000396000f3fe608060405234801561001057600080fd5b50600436106101215760003560e01c8063715018a6116100ad578063b88d4fde11610071578063b88d4fde1461024d578063c87b56dd14610260578063caa0f92a14610273578063e985e9c51461027b578063f2fde38b1461028e57600080fd5b8063715018a61461021057806375794a3c146102185780638da5cb5b1461022157806395d89b4114610232578063a22cb4651461023a57600080fd5b806323b872dd116100f457806323b872dd146101a357806342842e0e146101b65780636352211e146101c95780636a627842146101dc57806370a08231146101ef57600080fd5b806301ffc9a71461012657806306fdde031461014e578063081812fc14610163578063095ea7b31461018e575b600080fd5b610139610134366004610dd5565b6102a1565b60405190151581526020015b60405180910390f35b6101566102f3565b6040516101459190610e42565b610176610171366004610e55565b610385565b6040516001600160a01b039091168152602001610145565b6101a161019c366004610e8a565b6103ae565b005b6101a16101b1366004610eb4565b6103bd565b6101a16101c4366004610eb4565b61044d565b6101766101d7366004610e55565b61046d565b6101a16101ea366004610ef0565b610478565b6102026101fd366004610ef0565b6104fa565b604051908152602001610145565b6101a1610542565b61020260075481565b6006546001600160a01b0316610176565b610156610556565b6101a1610248366004610f0b565b610565565b6101a161025b366004610f5d565b610570565b61015661026e366004610e55565b610587565b600754610202565b610139610289366004611039565b6105fc565b6101a161029c366004610ef0565b61062a565b60006001600160e01b031982166380ac58cd60e01b14806102d257506001600160e01b03198216635b5e139f60e01b145b806102ed57506301ffc9a760e01b6001600160e01b03198316145b92915050565b6060600080546103029061106c565b80601f016020809104026020016040519081016040528092919081815260200182805461032e9061106c565b801561037b5780601f106103505761010080835404028352916020019161037b565b820191906000526020600020905b81548152906001019060200180831161035e57829003601f168201915b5050505050905090565b600061039082610668565b506000828152600460205260409020546001600160a01b03166102ed565b6103b98282336106a1565b5050565b6001600160a01b0382166103ec57604051633250574960e11b8152600060048201526024015b60405180910390fd5b60006103f98383336106ae565b9050836001600160a01b0316816001600160a01b031614610447576040516364283d7b60e01b81526001600160a01b03808616600483015260248201849052821660448201526064016103e3565b50505050565b61046883838360405180602001604052806000815250610570565b505050565b60006102ed82610668565b6104806107a7565b6001600160a01b0381166104d65760405162461bcd60e51b815260206004820152601b60248201527f43616e6e6f74206d696e7420746f207a65726f2061646472657373000000000060448201526064016103e3565b6104e2816007546107d4565b600780549060006104f2836110a6565b919050555050565b60006001600160a01b038216610526576040516322718ad960e21b8152600060048201526024016103e3565b506001600160a01b031660009081526003602052604090205490565b61054a6107a7565b61055460006107ee565b565b6060600180546103029061106c565b6103b9338383610840565b61057b8484846103bd565b610447848484846108df565b606061059282610668565b5060006105aa60408051602081019091526000815290565b905060008151116105ca57604051806020016040528060008152506105f5565b806105d484610a08565b6040516020016105e59291906110cd565b6040516020818303038152906040525b9392505050565b6001600160a01b03918216600090815260056020908152604080832093909416825291909152205460ff1690565b6106326107a7565b6001600160a01b03811661065c57604051631e4fbdf760e01b8152600060048201526024016103e3565b610665816107ee565b50565b6000818152600260205260408120546001600160a01b0316806102ed57604051637e27328960e01b8152600481018490526024016103e3565b6104688383836001610a9b565b6000828152600260205260408120546001600160a01b03908116908316156106db576106db818486610ba1565b6001600160a01b03811615610719576106f8600085600080610a9b565b6001600160a01b038116600090815260036020526040902080546000190190555b6001600160a01b03851615610748576001600160a01b0385166000908152600360205260409020805460010190555b60008481526002602052604080822080546001600160a01b0319166001600160a01b0389811691821790925591518793918516917fddf252ad1be2c89b69c2b068fc378daa952ba7f163c4a11628f55a4df523b3ef91a4949350505050565b6006546001600160a01b031633146105545760405163118cdaa760e01b81523360048201526024016103e3565b6103b9828260405180602001604052806000815250610c05565b600680546001600160a01b038381166001600160a01b0319831681179093556040519116919082907f8be0079c531659141344cd1fd0a4f28419497f9722a3daafe3b4186f6b6457e090600090a35050565b6001600160a01b03821661087257604051630b61174360e31b81526001600160a01b03831660048201526024016103e3565b6001600160a01b03838116600081815260056020908152604080832094871680845294825291829020805460ff191686151590811790915591519182527f17307eab39ab6107e8899845ad3d59bd9653f200f220920489ca2b5937696c31910160405180910390a3505050565b6001600160a01b0383163b1561044757604051630a85bd0160e11b81526001600160a01b0384169063150b7a02906109219033908890879087906004016110fc565b6020604051808303816000875af192505050801561095c575060408051601f3d908101601f1916820190925261095991810190611139565b60015b6109c5573d80801561098a576040519150601f19603f3d011682016040523d82523d6000602084013e61098f565b606091505b5080516000036109bd57604051633250574960e11b81526001600160a01b03851660048201526024016103e3565b805181602001fd5b6001600160e01b03198116630a85bd0160e11b14610a0157604051633250574960e11b81526001600160a01b03851660048201526024016103e3565b5050505050565b60606000610a1583610c1c565b600101905060008167ffffffffffffffff811115610a3557610a35610f47565b6040519080825280601f01601f191660200182016040528015610a5f576020820181803683370190505b5090508181016020015b600019016f181899199a1a9b1b9c1cb0b131b232b360811b600a86061a8153600a8504945084610a6957509392505050565b8080610aaf57506001600160a01b03821615155b15610b71576000610abf84610668565b90506001600160a01b03831615801590610aeb5750826001600160a01b0316816001600160a01b031614155b8015610afe5750610afc81846105fc565b155b15610b275760405163a9fbf51f60e01b81526001600160a01b03841660048201526024016103e3565b8115610b6f5783856001600160a01b0316826001600160a01b03167f8c5be1e5ebec7d5bd14f71427d1e84f3dd0314c0f7b2291e5b200ac8c7c3b92560405160405180910390a45b505b5050600090815260046020526040902080546001600160a01b0319166001600160a01b0392909216919091179055565b610bac838383610cf4565b610468576001600160a01b038316610bda57604051637e27328960e01b8152600481018290526024016103e3565b60405163177e802f60e01b81526001600160a01b0383166004820152602481018290526044016103e3565b610c0f8383610d5a565b61046860008484846108df565b60008072184f03e93ff9f4daa797ed6e38ed64bf6a1f0160401b8310610c5b5772184f03e93ff9f4daa797ed6e38ed64bf6a1f0160401b830492506040015b6d04ee2d6d415b85acef81000000008310610c87576d04ee2d6d415b85acef8100000000830492506020015b662386f26fc100008310610ca557662386f26fc10000830492506010015b6305f5e1008310610cbd576305f5e100830492506008015b6127108310610cd157612710830492506004015b60648310610ce3576064830492506002015b600a83106102ed5760010192915050565b60006001600160a01b03831615801590610d525750826001600160a01b0316846001600160a01b03161480610d2e5750610d2e84846105fc565b80610d5257506000828152600460205260409020546001600160a01b038481169116145b949350505050565b6001600160a01b038216610d8457604051633250574960e11b8152600060048201526024016103e3565b6000610d92838360006106ae565b90506001600160a01b03811615610468576040516339e3563760e11b8152600060048201526024016103e3565b6001600160e01b03198116811461066557600080fd5b600060208284031215610de757600080fd5b81356105f581610dbf565b60005b83811015610e0d578181015183820152602001610df5565b50506000910152565b60008151808452610e2e816020860160208601610df2565b601f01601f19169290920160200192915050565b6020815260006105f56020830184610e16565b600060208284031215610e6757600080fd5b5035919050565b80356001600160a01b0381168114610e8557600080fd5b919050565b60008060408385031215610e9d57600080fd5b610ea683610e6e565b946020939093013593505050565b600080600060608486031215610ec957600080fd5b610ed284610e6e565b9250610ee060208501610e6e565b9150604084013590509250925092565b600060208284031215610f0257600080fd5b6105f582610e6e565b60008060408385031215610f1e57600080fd5b610f2783610e6e565b915060208301358015158114610f3c57600080fd5b809150509250929050565b634e487b7160e01b600052604160045260246000fd5b60008060008060808587031215610f7357600080fd5b610f7c85610e6e565b9350610f8a60208601610e6e565b925060408501359150606085013567ffffffffffffffff80821115610fae57600080fd5b818701915087601f830112610fc257600080fd5b813581811115610fd457610fd4610f47565b604051601f8201601f19908116603f01168101908382118183101715610ffc57610ffc610f47565b816040528281528a602084870101111561101557600080fd5b82602086016020830137600060208483010152809550505050505092959194509250565b6000806040838503121561104c57600080fd5b61105583610e6e565b915061106360208401610e6e565b90509250929050565b600181811c9082168061108057607f821691505b6020821081036110a057634e487b7160e01b600052602260045260246000fd5b50919050565b6000600182016110c657634e487b7160e01b600052601160045260246000fd5b5060010190565b600083516110df818460208801610df2565b8351908301906110f3818360208801610df2565b01949350505050565b6001600160a01b038581168252841660208201526040810183905260806060820181905260009061112f90830184610e16565b9695505050505050565b60006020828403121561114b57600080fd5b81516105f581610dbf56fea264697066735822122049691cd501768e03a90313e6c86711dec15a488f642d8dd13bd7abfb0f9c81fe64736f6c63430008180033",
  "linkReferences": {},
  "deployedLinkReferences": {}
}